{
  "_format": "hh-sol-artifact-1",
  "contractName": "CryptoDevs",
  "sourceName": "contracts/CryptoDevs.sol",
  "abi": [
    {
      "inputs": [
        {
          "internalType": "string",
          "name": "baseURI",
          "type": "string"
        },
        {
          "internalType": "address",
          "name": "whitelistContract",
          "type": "address"
        }
      ],
      "stateMutability": "nonpayable",
      "type": "constructor"
    },
    {
      "anonymous": false,
      "inputs": [
        {
          "indexed": true,
          "internalType": "address",
          "name": "owner",
          "type": "address"
        },
        {
          "indexed": true,
          "internalType": "address",
          "name": "approved",
          "type": "address"
        },
        {
          "indexed": true,
          "internalType": "uint256",
          "name": "tokenId",
          "type": "uint256"
        }
      ],
      "name": "Approval",
      "type": "event"
    },
    {
      "anonymous": false,
      "inputs": [
        {
          "indexed": true,
          "internalType": "address",
          "name": "owner",
          "type": "address"
        },
        {
          "indexed": true,
          "internalType": "address",
          "name": "operator",
          "type": "address"
        },
        {
          "indexed": false,
          "internalType": "bool",
          "name": "approved",
          "type": "bool"
        }
      ],
      "name": "ApprovalForAll",
      "type": "event"
    },
    {
      "anonymous": false,
      "inputs": [
        {
          "indexed": true,
          "internalType": "address",
          "name": "previousOwner",
          "type": "address"
        },
        {
          "indexed": true,
          "internalType": "address",
          "name": "newOwner",
          "type": "address"
        }
      ],
      "name": "OwnershipTransferred",
      "type": "event"
    },
    {
      "anonymous": false,
      "inputs": [
        {
          "indexed": true,
          "internalType": "address",
          "name": "from",
          "type": "address"
        },
        {
          "indexed": true,
          "internalType": "address",
          "name": "to",
          "type": "address"
        },
        {
          "indexed": true,
          "internalType": "uint256",
          "name": "tokenId",
          "type": "uint256"
        }
      ],
      "name": "Transfer",
      "type": "event"
    },
    {
      "stateMutability": "payable",
      "type": "fallback"
    },
    {
      "inputs": [],
      "name": "_paused",
      "outputs": [
        {
          "internalType": "bool",
          "name": "",
          "type": "bool"
        }
      ],
      "stateMutability": "view",
      "type": "function"
    },
    {
      "inputs": [],
      "name": "_price",
      "outputs": [
        {
          "internalType": "uint256",
          "name": "",
          "type": "uint256"
        }
      ],
      "stateMutability": "view",
      "type": "function"
    },
    {
      "inputs": [
        {
          "internalType": "address",
          "name": "to",
          "type": "address"
        },
        {
          "internalType": "uint256",
          "name": "tokenId",
          "type": "uint256"
        }
      ],
      "name": "approve",
      "outputs": [],
      "stateMutability": "nonpayable",
      "type": "function"
    },
    {
      "inputs": [
        {
          "internalType": "address",
          "name": "owner",
          "type": "address"
        }
      ],
      "name": "balanceOf",
      "outputs": [
        {
          "internalType": "uint256",
          "name": "",
          "type": "uint256"
        }
      ],
      "stateMutability": "view",
      "type": "function"
    },
    {
      "inputs": [
        {
          "internalType": "uint256",
          "name": "tokenId",
          "type": "uint256"
        }
      ],
      "name": "getApproved",
      "outputs": [
        {
          "internalType": "address",
          "name": "",
          "type": "address"
        }
      ],
      "stateMutability": "view",
      "type": "function"
    },
    {
      "inputs": [
        {
          "internalType": "address",
          "name": "owner",
          "type": "address"
        },
        {
          "internalType": "address",
          "name": "operator",
          "type": "address"
        }
      ],
      "name": "isApprovedForAll",
      "outputs": [
        {
          "internalType": "bool",
          "name": "",
          "type": "bool"
        }
      ],
      "stateMutability": "view",
      "type": "function"
    },
    {
      "inputs": [],
      "name": "maxTokenIds",
      "outputs": [
        {
          "internalType": "uint256",
          "name": "",
          "type": "uint256"
        }
      ],
      "stateMutability": "view",
      "type": "function"
    },
    {
      "inputs": [],
      "name": "mint",
      "outputs": [],
      "stateMutability": "payable",
      "type": "function"
    },
    {
      "inputs": [],
      "name": "name",
      "outputs": [
        {
          "internalType": "string",
          "name": "",
          "type": "string"
        }
      ],
      "stateMutability": "view",
      "type": "function"
    },
    {
      "inputs": [],
      "name": "owner",
      "outputs": [
        {
          "internalType": "address",
          "name": "",
          "type": "address"
        }
      ],
      "stateMutability": "view",
      "type": "function"
    },
    {
      "inputs": [
        {
          "internalType": "uint256",
          "name": "tokenId",
          "type": "uint256"
        }
      ],
      "name": "ownerOf",
      "outputs": [
        {
          "internalType": "address",
          "name": "",
          "type": "address"
        }
      ],
      "stateMutability": "view",
      "type": "function"
    },
    {
      "inputs": [],
      "name": "presaleEnded",
      "outputs": [
        {
          "internalType": "uint256",
          "name": "",
          "type": "uint256"
        }
      ],
      "stateMutability": "view",
      "type": "function"
    },
    {
      "inputs": [],
      "name": "presaleMint",
      "outputs": [],
      "stateMutability": "payable",
      "type": "function"
    },
    {
      "inputs": [],
      "name": "presaleStarted",
      "outputs": [
        {
          "internalType": "bool",
          "name": "",
          "type": "bool"
        }
      ],
      "stateMutability": "view",
      "type": "function"
    },
    {
      "inputs": [],
      "name": "renounceOwnership",
      "outputs": [],
      "stateMutability": "nonpayable",
      "type": "function"
    },
    {
      "inputs": [
        {
          "internalType": "address",
          "name": "from",
          "type": "address"
        },
        {
          "internalType": "address",
          "name": "to",
          "type": "address"
        },
        {
          "internalType": "uint256",
          "name": "tokenId",
          "type": "uint256"
        }
      ],
      "name": "safeTransferFrom",
      "outputs": [],
      "stateMutability": "nonpayable",
      "type": "function"
    },
    {
      "inputs": [
        {
          "internalType": "address",
          "name": "from",
          "type": "address"
        },
        {
          "internalType": "address",
          "name": "to",
          "type": "address"
        },
        {
          "internalType": "uint256",
          "name": "tokenId",
          "type": "uint256"
        },
        {
          "internalType": "bytes",
          "name": "_data",
          "type": "bytes"
        }
      ],
      "name": "safeTransferFrom",
      "outputs": [],
      "stateMutability": "nonpayable",
      "type": "function"
    },
    {
      "inputs": [
        {
          "internalType": "address",
          "name": "operator",
          "type": "address"
        },
        {
          "internalType": "bool",
          "name": "approved",
          "type": "bool"
        }
      ],
      "name": "setApprovalForAll",
      "outputs": [],
      "stateMutability": "nonpayable",
      "type": "function"
    },
    {
      "inputs": [
        {
          "internalType": "bool",
          "name": "val",
          "type": "bool"
        }
      ],
      "name": "setPaused",
      "outputs": [],
      "stateMutability": "nonpayable",
      "type": "function"
    },
    {
      "inputs": [],
      "name": "startPresale",
      "outputs": [],
      "stateMutability": "nonpayable",
      "type": "function"
    },
    {
      "inputs": [
        {
          "internalType": "bytes4",
          "name": "interfaceId",
          "type": "bytes4"
        }
      ],
      "name": "supportsInterface",
      "outputs": [
        {
          "internalType": "bool",
          "name": "",
          "type": "bool"
        }
      ],
      "stateMutability": "view",
      "type": "function"
    },
    {
      "inputs": [],
      "name": "symbol",
      "outputs": [
        {
          "internalType": "string",
          "name": "",
          "type": "string"
        }
      ],
      "stateMutability": "view",
      "type": "function"
    },
    {
      "inputs": [
        {
          "internalType": "uint256",
          "name": "index",
          "type": "uint256"
        }
      ],
      "name": "tokenByIndex",
      "outputs": [
        {
          "internalType": "uint256",
          "name": "",
          "type": "uint256"
        }
      ],
      "stateMutability": "view",
      "type": "function"
    },
    {
      "inputs": [],
      "name": "tokenIds",
      "outputs": [
        {
          "internalType": "uint256",
          "name": "",
          "type": "uint256"
        }
      ],
      "stateMutability": "view",
      "type": "function"
    },
    {
      "inputs": [
        {
          "internalType": "address",
          "name": "owner",
          "type": "address"
        },
        {
          "internalType": "uint256",
          "name": "index",
          "type": "uint256"
        }
      ],
      "name": "tokenOfOwnerByIndex",
      "outputs": [
        {
          "internalType": "uint256",
          "name": "",
          "type": "uint256"
        }
      ],
      "stateMutability": "view",
      "type": "function"
    },
    {
      "inputs": [
        {
          "internalType": "uint256",
          "name": "tokenId",
          "type": "uint256"
        }
      ],
      "name": "tokenURI",
      "outputs": [
        {
          "internalType": "string",
          "name": "",
          "type": "string"
        }
      ],
      "stateMutability": "view",
      "type": "function"
    },
    {
      "inputs": [],
      "name": "totalSupply",
      "outputs": [
        {
          "internalType": "uint256",
          "name": "",
          "type": "uint256"
        }
      ],
      "stateMutability": "view",
      "type": "function"
    },
    {
      "inputs": [
        {
          "internalType": "address",
          "name": "from",
          "type": "address"
        },
        {
          "internalType": "address",
          "name": "to",
          "type": "address"
        },
        {
          "internalType": "uint256",
          "name": "tokenId",
          "type": "uint256"
        }
      ],
      "name": "transferFrom",
      "outputs": [],
      "stateMutability": "nonpayable",
      "type": "function"
    },
    {
      "inputs": [
        {
          "internalType": "address",
          "name": "newOwner",
          "type": "address"
        }
      ],
      "name": "transferOwnership",
      "outputs": [],
      "stateMutability": "nonpayable",
      "type": "function"
    },
    {
      "inputs": [],
      "name": "withdraw",
      "outputs": [],
      "stateMutability": "nonpayable",
      "type": "function"
    },
    {
      "stateMutability": "payable",
      "type": "receive"
    }
  ],
  "bytecode": "0x6080604052662386f26fc10000600c556014600e553480156200002157600080fd5b50604051620045fe380380620045fe833981810160405281019062000047919062000370565b6040518060400160405280600b81526020017f43727970746f20446576730000000000000000000000000000000000000000008152506040518060400160405280600281526020017f43440000000000000000000000000000000000000000000000000000000000008152508160009080519060200190620000cb92919062000237565b508060019080519060200190620000e492919062000237565b50505062000107620000fb6200016960201b60201c565b6200017160201b60201c565b81600b90805190602001906200011f92919062000237565b5080601060006101000a81548173ffffffffffffffffffffffffffffffffffffffff021916908373ffffffffffffffffffffffffffffffffffffffff160217905550505062000588565b600033905090565b6000600a60009054906101000a900473ffffffffffffffffffffffffffffffffffffffff16905081600a60006101000a81548173ffffffffffffffffffffffffffffffffffffffff021916908373ffffffffffffffffffffffffffffffffffffffff1602179055508173ffffffffffffffffffffffffffffffffffffffff168173ffffffffffffffffffffffffffffffffffffffff167f8be0079c531659141344cd1fd0a4f28419497f9722a3daafe3b4186f6b6457e060405160405180910390a35050565b828054620002459062000493565b90600052602060002090601f016020900481019282620002695760008555620002b5565b82601f106200028457805160ff1916838001178555620002b5565b82800160010185558215620002b5579182015b82811115620002b457825182559160200191906001019062000297565b5b509050620002c49190620002c8565b5090565b5b80821115620002e3576000816000905550600101620002c9565b5090565b6000620002fe620002f884620003f3565b620003ca565b9050828152602081018484840111156200031757600080fd5b620003248482856200045d565b509392505050565b6000815190506200033d816200056e565b92915050565b600082601f8301126200035557600080fd5b815162000367848260208601620002e7565b91505092915050565b600080604083850312156200038457600080fd5b600083015167ffffffffffffffff8111156200039f57600080fd5b620003ad8582860162000343565b9250506020620003c0858286016200032c565b9150509250929050565b6000620003d6620003e9565b9050620003e48282620004c9565b919050565b6000604051905090565b600067ffffffffffffffff8211156200041157620004106200052e565b5b6200041c826200055d565b9050602081019050919050565b600062000436826200043d565b9050919050565b600073ffffffffffffffffffffffffffffffffffffffff82169050919050565b60005b838110156200047d57808201518184015260208101905062000460565b838111156200048d576000848401525b50505050565b60006002820490506001821680620004ac57607f821691505b60208210811415620004c357620004c2620004ff565b5b50919050565b620004d4826200055d565b810181811067ffffffffffffffff82111715620004f657620004f56200052e565b5b80604052505050565b7f4e487b7100000000000000000000000000000000000000000000000000000000600052602260045260246000fd5b7f4e487b7100000000000000000000000000000000000000000000000000000000600052604160045260246000fd5b6000601f19601f8301169050919050565b620005798162000429565b81146200058557600080fd5b50565b61406680620005986000396000f3fe6080604052600436106101d15760003560e01c80634f6ccce7116100f75780638da5cb5b11610095578063c87b56dd11610064578063c87b56dd1461061a578063e580b2b014610657578063e985e9c514610682578063f2fde38b146106bf576101d8565b80638da5cb5b1461057257806395d89b411461059d578063a22cb465146105c8578063b88d4fde146105f1576101d8565b80636352211e116100d15780636352211e146104b657806370a08231146104f3578063714cff5614610530578063715018a61461055b576101d8565b80634f6ccce71461044457806359533d6c146104815780635f7696211461048b576101d8565b806316c38b3c1161016f57806323b872dd1161013e57806323b872dd1461039e5780632f745c59146103c75780633ccfd60b1461040457806342842e0e1461041b576101d8565b806316c38b3c146102f457806316c61ccc1461031d57806318160ddd14610348578063235b6ea114610373576101d8565b806306fdde03116101ab57806306fdde0314610259578063081812fc14610284578063095ea7b3146102c15780631249c58b146102ea576101d8565b806301ffc9a7146101da57806304549d6f1461021757806304c98b2b14610242576101d8565b366101d857005b005b3480156101e657600080fd5b5061020160048036038101906101fc9190612ce6565b6106e8565b60405161020e919061325f565b60405180910390f35b34801561022357600080fd5b5061022c610762565b604051610239919061325f565b60405180910390f35b34801561024e57600080fd5b50610257610775565b005b34801561026557600080fd5b5061026e610822565b60405161027b919061327a565b60405180910390f35b34801561029057600080fd5b506102ab60048036038101906102a69190612d38565b6108b4565b6040516102b891906131f8565b60405180910390f35b3480156102cd57600080fd5b506102e860048036038101906102e39190612c58565b610939565b005b6102f2610a51565b005b34801561030057600080fd5b5061031b60048036038101906103169190612c94565b610bb1565b005b34801561032957600080fd5b50610332610c4a565b60405161033f919061325f565b60405180910390f35b34801561035457600080fd5b5061035d610c5d565b60405161036a91906135bc565b60405180910390f35b34801561037f57600080fd5b50610388610c6a565b60405161039591906135bc565b60405180910390f35b3480156103aa57600080fd5b506103c560048036038101906103c09190612b52565b610c70565b005b3480156103d357600080fd5b506103ee60048036038101906103e99190612c58565b610cd0565b6040516103fb91906135bc565b60405180910390f35b34801561041057600080fd5b50610419610d75565b005b34801561042757600080fd5b50610442600480360381019061043d9190612b52565b610eb3565b005b34801561045057600080fd5b5061046b60048036038101906104669190612d38565b610ed3565b60405161047891906135bc565b60405180910390f35b610489610f6a565b005b34801561049757600080fd5b506104a061116d565b6040516104ad91906135bc565b60405180910390f35b3480156104c257600080fd5b506104dd60048036038101906104d89190612d38565b611173565b6040516104ea91906131f8565b60405180910390f35b3480156104ff57600080fd5b5061051a60048036038101906105159190612aed565b611225565b60405161052791906135bc565b60405180910390f35b34801561053c57600080fd5b506105456112dd565b60405161055291906135bc565b60405180910390f35b34801561056757600080fd5b506105706112e3565b005b34801561057e57600080fd5b5061058761136b565b60405161059491906131f8565b60405180910390f35b3480156105a957600080fd5b506105b2611395565b6040516105bf919061327a565b60405180910390f35b3480156105d457600080fd5b506105ef60048036038101906105ea9190612c1c565b611427565b005b3480156105fd57600080fd5b5061061860048036038101906106139190612ba1565b61143d565b005b34801561062657600080fd5b50610641600480360381019061063c9190612d38565b61149f565b60405161064e919061327a565b60405180910390f35b34801561066357600080fd5b5061066c611546565b60405161067991906135bc565b60405180910390f35b34801561068e57600080fd5b506106a960048036038101906106a49190612b16565b61154c565b6040516106b6919061325f565b60405180910390f35b3480156106cb57600080fd5b506106e660048036038101906106e19190612aed565b6115e0565b005b60007f780e9d63000000000000000000000000000000000000000000000000000000007bffffffffffffffffffffffffffffffffffffffffffffffffffffffff1916827bffffffffffffffffffffffffffffffffffffffffffffffffffffffff1916148061075b575061075a826116d8565b5b9050919050565b601060149054906101000a900460ff1681565b61077d6117ba565b73ffffffffffffffffffffffffffffffffffffffff1661079b61136b565b73ffffffffffffffffffffffffffffffffffffffff16146107f1576040517f08c379a00000000000000000000000000000000000000000000000000000000081526004016107e8906134bc565b60405180910390fd5b6001601060146101000a81548160ff02191690831515021790555061012c4261081a919061367b565b601181905550565b606060008054610831906137ec565b80601f016020809104026020016040519081016040528092919081815260200182805461085d906137ec565b80156108aa5780601f1061087f576101008083540402835291602001916108aa565b820191906000526020600020905b81548152906001019060200180831161088d57829003601f168201915b5050505050905090565b60006108bf826117c2565b6108fe576040517f08c379a00000000000000000000000000000000000000000000000000000000081526004016108f59061349c565b60405180910390fd5b6004600083815260200190815260200160002060009054906101000a900473ffffffffffffffffffffffffffffffffffffffff169050919050565b600061094482611173565b90508073ffffffffffffffffffffffffffffffffffffffff168373ffffffffffffffffffffffffffffffffffffffff1614156109b5576040517f08c379a00000000000000000000000000000000000000000000000000000000081526004016109ac9061351c565b60405180910390fd5b8073ffffffffffffffffffffffffffffffffffffffff166109d46117ba565b73ffffffffffffffffffffffffffffffffffffffff161480610a035750610a02816109fd6117ba565b61154c565b5b610a42576040517f08c379a0000000000000000000000000000000000000000000000000000000008152600401610a39906133fc565b60405180910390fd5b610a4c838361182e565b505050565b600d60009054906101000a900460ff1615610aa1576040517f08c379a0000000000000000000000000000000000000000000000000000000008152600401610a98906134fc565b60405180910390fd5b601060149054906101000a900460ff168015610abf57506011544210155b610afe576040517f08c379a0000000000000000000000000000000000000000000000000000000008152600401610af59061359c565b60405180910390fd5b600e54600f5410610b44576040517f08c379a0000000000000000000000000000000000000000000000000000000008152600401610b3b906132fc565b60405180910390fd5b600c54341015610b89576040517f08c379a0000000000000000000000000000000000000000000000000000000008152600401610b809061353c565b60405180910390fd5b6001600f6000828254610b9c919061367b565b92505081905550610baf33600f546118e7565b565b610bb96117ba565b73ffffffffffffffffffffffffffffffffffffffff16610bd761136b565b73ffffffffffffffffffffffffffffffffffffffff1614610c2d576040517f08c379a0000000000000000000000000000000000000000000000000000000008152600401610c24906134bc565b60405180910390fd5b80600d60006101000a81548160ff02191690831515021790555050565b600d60009054906101000a900460ff1681565b6000600880549050905090565b600c5481565b610c81610c7b6117ba565b82611905565b610cc0576040517f08c379a0000000000000000000000000000000000000000000000000000000008152600401610cb79061355c565b60405180910390fd5b610ccb8383836119e3565b505050565b6000610cdb83611225565b8210610d1c576040517f08c379a0000000000000000000000000000000000000000000000000000000008152600401610d139061329c565b60405180910390fd5b600660008473ffffffffffffffffffffffffffffffffffffffff1673ffffffffffffffffffffffffffffffffffffffff168152602001908152602001600020600083815260200190815260200160002054905092915050565b610d7d6117ba565b73ffffffffffffffffffffffffffffffffffffffff16610d9b61136b565b73ffffffffffffffffffffffffffffffffffffffff1614610df1576040517f08c379a0000000000000000000000000000000000000000000000000000000008152600401610de8906134bc565b60405180910390fd5b6000610dfb61136b565b9050600047905060008273ffffffffffffffffffffffffffffffffffffffff1682604051610e28906131e3565b60006040518083038185875af1925050503d8060008114610e65576040519150601f19603f3d011682016040523d82523d6000602084013e610e6a565b606091505b5050905080610eae576040517f08c379a0000000000000000000000000000000000000000000000000000000008152600401610ea59061337c565b60405180910390fd5b505050565b610ece8383836040518060200160405280600081525061143d565b505050565b6000610edd610c5d565b8210610f1e576040517f08c379a0000000000000000000000000000000000000000000000000000000008152600401610f159061357c565b60405180910390fd5b60088281548110610f58577f4e487b7100000000000000000000000000000000000000000000000000000000600052603260045260246000fd5b90600052602060002001549050919050565b600d60009054906101000a900460ff1615610fba576040517f08c379a0000000000000000000000000000000000000000000000000000000008152600401610fb1906134fc565b60405180910390fd5b601060149054906101000a900460ff168015610fd7575060115442105b611016576040517f08c379a000000000000000000000000000000000000000000000000000000000815260040161100d9061335c565b60405180910390fd5b601060009054906101000a900473ffffffffffffffffffffffffffffffffffffffff1673ffffffffffffffffffffffffffffffffffffffff166306c933d8336040518263ffffffff1660e01b815260040161107191906131f8565b60206040518083038186803b15801561108957600080fd5b505afa15801561109d573d6000803e3d6000fd5b505050506040513d601f19601f820116820180604052508101906110c19190612cbd565b611100576040517f08c379a00000000000000000000000000000000000000000000000000000000081526004016110f79061347c565b60405180910390fd5b600c54341015611145576040517f08c379a000000000000000000000000000000000000000000000000000000000815260040161113c9061353c565b60405180910390fd5b6001600f6000828254611158919061367b565b9250508190555061116b33600f546118e7565b565b600e5481565b6000806002600084815260200190815260200160002060009054906101000a900473ffffffffffffffffffffffffffffffffffffffff169050600073ffffffffffffffffffffffffffffffffffffffff168173ffffffffffffffffffffffffffffffffffffffff16141561121c576040517f08c379a00000000000000000000000000000000000000000000000000000000081526004016112139061343c565b60405180910390fd5b80915050919050565b60008073ffffffffffffffffffffffffffffffffffffffff168273ffffffffffffffffffffffffffffffffffffffff161415611296576040517f08c379a000000000000000000000000000000000000000000000000000000000815260040161128d9061341c565b60405180910390fd5b600360008373ffffffffffffffffffffffffffffffffffffffff1673ffffffffffffffffffffffffffffffffffffffff168152602001908152602001600020549050919050565b600f5481565b6112eb6117ba565b73ffffffffffffffffffffffffffffffffffffffff1661130961136b565b73ffffffffffffffffffffffffffffffffffffffff161461135f576040517f08c379a0000000000000000000000000000000000000000000000000000000008152600401611356906134bc565b60405180910390fd5b6113696000611c4a565b565b6000600a60009054906101000a900473ffffffffffffffffffffffffffffffffffffffff16905090565b6060600180546113a4906137ec565b80601f01602080910402602001604051908101604052809291908181526020018280546113d0906137ec565b801561141d5780601f106113f25761010080835404028352916020019161141d565b820191906000526020600020905b81548152906001019060200180831161140057829003601f168201915b5050505050905090565b6114396114326117ba565b8383611d10565b5050565b61144e6114486117ba565b83611905565b61148d576040517f08c379a00000000000000000000000000000000000000000000000000000000081526004016114849061355c565b60405180910390fd5b61149984848484611e7d565b50505050565b60606114aa826117c2565b6114e9576040517f08c379a00000000000000000000000000000000000000000000000000000000081526004016114e0906134dc565b60405180910390fd5b60006114f3611ed9565b90506000815111611513576040518060200160405280600081525061153e565b8061151d84611f6b565b60405160200161152e9291906131bf565b6040516020818303038152906040525b915050919050565b60115481565b6000600560008473ffffffffffffffffffffffffffffffffffffffff1673ffffffffffffffffffffffffffffffffffffffff16815260200190815260200160002060008373ffffffffffffffffffffffffffffffffffffffff1673ffffffffffffffffffffffffffffffffffffffff16815260200190815260200160002060009054906101000a900460ff16905092915050565b6115e86117ba565b73ffffffffffffffffffffffffffffffffffffffff1661160661136b565b73ffffffffffffffffffffffffffffffffffffffff161461165c576040517f08c379a0000000000000000000000000000000000000000000000000000000008152600401611653906134bc565b60405180910390fd5b600073ffffffffffffffffffffffffffffffffffffffff168173ffffffffffffffffffffffffffffffffffffffff1614156116cc576040517f08c379a00000000000000000000000000000000000000000000000000000000081526004016116c3906132dc565b60405180910390fd5b6116d581611c4a565b50565b60007f80ac58cd000000000000000000000000000000000000000000000000000000007bffffffffffffffffffffffffffffffffffffffffffffffffffffffff1916827bffffffffffffffffffffffffffffffffffffffffffffffffffffffff191614806117a357507f5b5e139f000000000000000000000000000000000000000000000000000000007bffffffffffffffffffffffffffffffffffffffffffffffffffffffff1916827bffffffffffffffffffffffffffffffffffffffffffffffffffffffff1916145b806117b357506117b282612118565b5b9050919050565b600033905090565b60008073ffffffffffffffffffffffffffffffffffffffff166002600084815260200190815260200160002060009054906101000a900473ffffffffffffffffffffffffffffffffffffffff1673ffffffffffffffffffffffffffffffffffffffff1614159050919050565b816004600083815260200190815260200160002060006101000a81548173ffffffffffffffffffffffffffffffffffffffff021916908373ffffffffffffffffffffffffffffffffffffffff160217905550808273ffffffffffffffffffffffffffffffffffffffff166118a183611173565b73ffffffffffffffffffffffffffffffffffffffff167f8c5be1e5ebec7d5bd14f71427d1e84f3dd0314c0f7b2291e5b200ac8c7c3b92560405160405180910390a45050565b611901828260405180602001604052806000815250612182565b5050565b6000611910826117c2565b61194f576040517f08c379a0000000000000000000000000000000000000000000000000000000008152600401611946906133dc565b60405180910390fd5b600061195a83611173565b90508073ffffffffffffffffffffffffffffffffffffffff168473ffffffffffffffffffffffffffffffffffffffff16148061199c575061199b818561154c565b5b806119da57508373ffffffffffffffffffffffffffffffffffffffff166119c2846108b4565b73ffffffffffffffffffffffffffffffffffffffff16145b91505092915050565b8273ffffffffffffffffffffffffffffffffffffffff16611a0382611173565b73ffffffffffffffffffffffffffffffffffffffff1614611a59576040517f08c379a0000000000000000000000000000000000000000000000000000000008152600401611a509061331c565b60405180910390fd5b600073ffffffffffffffffffffffffffffffffffffffff168273ffffffffffffffffffffffffffffffffffffffff161415611ac9576040517f08c379a0000000000000000000000000000000000000000000000000000000008152600401611ac09061339c565b60405180910390fd5b611ad48383836121dd565b611adf60008261182e565b6001600360008573ffffffffffffffffffffffffffffffffffffffff1673ffffffffffffffffffffffffffffffffffffffff1681526020019081526020016000206000828254611b2f9190613702565b925050819055506001600360008473ffffffffffffffffffffffffffffffffffffffff1673ffffffffffffffffffffffffffffffffffffffff1681526020019081526020016000206000828254611b86919061367b565b92505081905550816002600083815260200190815260200160002060006101000a81548173ffffffffffffffffffffffffffffffffffffffff021916908373ffffffffffffffffffffffffffffffffffffffff160217905550808273ffffffffffffffffffffffffffffffffffffffff168473ffffffffffffffffffffffffffffffffffffffff167fddf252ad1be2c89b69c2b068fc378daa952ba7f163c4a11628f55a4df523b3ef60405160405180910390a4611c458383836122f1565b505050565b6000600a60009054906101000a900473ffffffffffffffffffffffffffffffffffffffff16905081600a60006101000a81548173ffffffffffffffffffffffffffffffffffffffff021916908373ffffffffffffffffffffffffffffffffffffffff1602179055508173ffffffffffffffffffffffffffffffffffffffff168173ffffffffffffffffffffffffffffffffffffffff167f8be0079c531659141344cd1fd0a4f28419497f9722a3daafe3b4186f6b6457e060405160405180910390a35050565b8173ffffffffffffffffffffffffffffffffffffffff168373ffffffffffffffffffffffffffffffffffffffff161415611d7f576040517f08c379a0000000000000000000000000000000000000000000000000000000008152600401611d76906133bc565b60405180910390fd5b80600560008573ffffffffffffffffffffffffffffffffffffffff1673ffffffffffffffffffffffffffffffffffffffff16815260200190815260200160002060008473ffffffffffffffffffffffffffffffffffffffff1673ffffffffffffffffffffffffffffffffffffffff16815260200190815260200160002060006101000a81548160ff0219169083151502179055508173ffffffffffffffffffffffffffffffffffffffff168373ffffffffffffffffffffffffffffffffffffffff167f17307eab39ab6107e8899845ad3d59bd9653f200f220920489ca2b5937696c3183604051611e70919061325f565b60405180910390a3505050565b611e888484846119e3565b611e94848484846122f6565b611ed3576040517f08c379a0000000000000000000000000000000000000000000000000000000008152600401611eca906132bc565b60405180910390fd5b50505050565b6060600b8054611ee8906137ec565b80601f0160208091040260200160405190810160405280929190818152602001828054611f14906137ec565b8015611f615780601f10611f3657610100808354040283529160200191611f61565b820191906000526020600020905b815481529060010190602001808311611f4457829003601f168201915b5050505050905090565b60606000821415611fb3576040518060400160405280600181526020017f30000000000000000000000000000000000000000000000000000000000000008152509050612113565b600082905060005b60008214611fe5578080611fce9061384f565b915050600a82611fde91906136d1565b9150611fbb565b60008167ffffffffffffffff811115612027577f4e487b7100000000000000000000000000000000000000000000000000000000600052604160045260246000fd5b6040519080825280601f01601f1916602001820160405280156120595781602001600182028036833780820191505090505b5090505b6000851461210c576001826120729190613702565b9150600a856120819190613898565b603061208d919061367b565b60f81b8183815181106120c9577f4e487b7100000000000000000000000000000000000000000000000000000000600052603260045260246000fd5b60200101907effffffffffffffffffffffffffffffffffffffffffffffffffffffffffffff1916908160001a905350600a8561210591906136d1565b945061205d565b8093505050505b919050565b60007f01ffc9a7000000000000000000000000000000000000000000000000000000007bffffffffffffffffffffffffffffffffffffffffffffffffffffffff1916827bffffffffffffffffffffffffffffffffffffffffffffffffffffffff1916149050919050565b61218c838361248d565b61219960008484846122f6565b6121d8576040517f08c379a00000000000000000000000000000000000000000000000000000000081526004016121cf906132bc565b60405180910390fd5b505050565b6121e8838383612667565b600073ffffffffffffffffffffffffffffffffffffffff168373ffffffffffffffffffffffffffffffffffffffff16141561222b576122268161266c565b61226a565b8173ffffffffffffffffffffffffffffffffffffffff168373ffffffffffffffffffffffffffffffffffffffff16146122695761226883826126b5565b5b5b600073ffffffffffffffffffffffffffffffffffffffff168273ffffffffffffffffffffffffffffffffffffffff1614156122ad576122a881612822565b6122ec565b8273ffffffffffffffffffffffffffffffffffffffff168273ffffffffffffffffffffffffffffffffffffffff16146122eb576122ea8282612965565b5b5b505050565b505050565b60006123178473ffffffffffffffffffffffffffffffffffffffff166129e4565b15612480578373ffffffffffffffffffffffffffffffffffffffff1663150b7a026123406117ba565b8786866040518563ffffffff1660e01b81526004016123629493929190613213565b602060405180830381600087803b15801561237c57600080fd5b505af19250505080156123ad57506040513d601f19601f820116820180604052508101906123aa9190612d0f565b60015b612430573d80600081146123dd576040519150601f19603f3d011682016040523d82523d6000602084013e6123e2565b606091505b50600081511415612428576040517f08c379a000000000000000000000000000000000000000000000000000000000815260040161241f906132bc565b60405180910390fd5b805181602001fd5b63150b7a0260e01b7bffffffffffffffffffffffffffffffffffffffffffffffffffffffff1916817bffffffffffffffffffffffffffffffffffffffffffffffffffffffff191614915050612485565b600190505b949350505050565b600073ffffffffffffffffffffffffffffffffffffffff168273ffffffffffffffffffffffffffffffffffffffff1614156124fd576040517f08c379a00000000000000000000000000000000000000000000000000000000081526004016124f49061345c565b60405180910390fd5b612506816117c2565b15612546576040517f08c379a000000000000000000000000000000000000000000000000000000000815260040161253d9061333c565b60405180910390fd5b612552600083836121dd565b6001600360008473ffffffffffffffffffffffffffffffffffffffff1673ffffffffffffffffffffffffffffffffffffffff16815260200190815260200160002060008282546125a2919061367b565b92505081905550816002600083815260200190815260200160002060006101000a81548173ffffffffffffffffffffffffffffffffffffffff021916908373ffffffffffffffffffffffffffffffffffffffff160217905550808273ffffffffffffffffffffffffffffffffffffffff16600073ffffffffffffffffffffffffffffffffffffffff167fddf252ad1be2c89b69c2b068fc378daa952ba7f163c4a11628f55a4df523b3ef60405160405180910390a4612663600083836122f1565b5050565b505050565b6008805490506009600083815260200190815260200160002081905550600881908060018154018082558091505060019003906000526020600020016000909190919091505550565b600060016126c284611225565b6126cc9190613702565b90506000600760008481526020019081526020016000205490508181146127b1576000600660008673ffffffffffffffffffffffffffffffffffffffff1673ffffffffffffffffffffffffffffffffffffffff168152602001908152602001600020600084815260200190815260200160002054905080600660008773ffffffffffffffffffffffffffffffffffffffff1673ffffffffffffffffffffffffffffffffffffffff168152602001908152602001600020600084815260200190815260200160002081905550816007600083815260200190815260200160002081905550505b6007600084815260200190815260200160002060009055600660008573ffffffffffffffffffffffffffffffffffffffff1673ffffffffffffffffffffffffffffffffffffffff16815260200190815260200160002060008381526020019081526020016000206000905550505050565b600060016008805490506128369190613702565b905060006009600084815260200190815260200160002054905060006008838154811061288c577f4e487b7100000000000000000000000000000000000000000000000000000000600052603260045260246000fd5b9060005260206000200154905080600883815481106128d4577f4e487b7100000000000000000000000000000000000000000000000000000000600052603260045260246000fd5b906000526020600020018190555081600960008381526020019081526020016000208190555060096000858152602001908152602001600020600090556008805480612949577f4e487b7100000000000000000000000000000000000000000000000000000000600052603160045260246000fd5b6001900381819060005260206000200160009055905550505050565b600061297083611225565b905081600660008573ffffffffffffffffffffffffffffffffffffffff1673ffffffffffffffffffffffffffffffffffffffff168152602001908152602001600020600083815260200190815260200160002081905550806007600084815260200190815260200160002081905550505050565b6000808273ffffffffffffffffffffffffffffffffffffffff163b119050919050565b6000612a1a612a15846135fc565b6135d7565b905082815260208101848484011115612a3257600080fd5b612a3d8482856137aa565b509392505050565b600081359050612a5481613fd4565b92915050565b600081359050612a6981613feb565b92915050565b600081519050612a7e81613feb565b92915050565b600081359050612a9381614002565b92915050565b600081519050612aa881614002565b92915050565b600082601f830112612abf57600080fd5b8135612acf848260208601612a07565b91505092915050565b600081359050612ae781614019565b92915050565b600060208284031215612aff57600080fd5b6000612b0d84828501612a45565b91505092915050565b60008060408385031215612b2957600080fd5b6000612b3785828601612a45565b9250506020612b4885828601612a45565b9150509250929050565b600080600060608486031215612b6757600080fd5b6000612b7586828701612a45565b9350506020612b8686828701612a45565b9250506040612b9786828701612ad8565b9150509250925092565b60008060008060808587031215612bb757600080fd5b6000612bc587828801612a45565b9450506020612bd687828801612a45565b9350506040612be787828801612ad8565b925050606085013567ffffffffffffffff811115612c0457600080fd5b612c1087828801612aae565b91505092959194509250565b60008060408385031215612c2f57600080fd5b6000612c3d85828601612a45565b9250506020612c4e85828601612a5a565b9150509250929050565b60008060408385031215612c6b57600080fd5b6000612c7985828601612a45565b9250506020612c8a85828601612ad8565b9150509250929050565b600060208284031215612ca657600080fd5b6000612cb484828501612a5a565b91505092915050565b600060208284031215612ccf57600080fd5b6000612cdd84828501612a6f565b91505092915050565b600060208284031215612cf857600080fd5b6000612d0684828501612a84565b91505092915050565b600060208284031215612d2157600080fd5b6000612d2f84828501612a99565b91505092915050565b600060208284031215612d4a57600080fd5b6000612d5884828501612ad8565b91505092915050565b612d6a81613736565b82525050565b612d7981613748565b82525050565b6000612d8a8261362d565b612d948185613643565b9350612da48185602086016137b9565b612dad81613985565b840191505092915050565b6000612dc382613638565b612dcd818561365f565b9350612ddd8185602086016137b9565b612de681613985565b840191505092915050565b6000612dfc82613638565b612e068185613670565b9350612e168185602086016137b9565b80840191505092915050565b6000612e2f602b8361365f565b9150612e3a82613996565b604082019050919050565b6000612e5260328361365f565b9150612e5d826139e5565b604082019050919050565b6000612e7560268361365f565b9150612e8082613a34565b604082019050919050565b6000612e9860218361365f565b9150612ea382613a83565b604082019050919050565b6000612ebb60258361365f565b9150612ec682613ad2565b604082019050919050565b6000612ede601c8361365f565b9150612ee982613b21565b602082019050919050565b6000612f0160168361365f565b9150612f0c82613b4a565b602082019050919050565b6000612f2460148361365f565b9150612f2f82613b73565b602082019050919050565b6000612f4760248361365f565b9150612f5282613b9c565b604082019050919050565b6000612f6a60198361365f565b9150612f7582613beb565b602082019050919050565b6000612f8d602c8361365f565b9150612f9882613c14565b604082019050919050565b6000612fb060388361365f565b9150612fbb82613c63565b604082019050919050565b6000612fd3602a8361365f565b9150612fde82613cb2565b604082019050919050565b6000612ff660298361365f565b915061300182613d01565b604082019050919050565b600061301960208361365f565b915061302482613d50565b602082019050919050565b600061303c60178361365f565b915061304782613d79565b602082019050919050565b600061305f602c8361365f565b915061306a82613da2565b604082019050919050565b600061308260208361365f565b915061308d82613df1565b602082019050919050565b60006130a5602f8361365f565b91506130b082613e1a565b604082019050919050565b60006130c860198361365f565b91506130d382613e69565b602082019050919050565b60006130eb60218361365f565b91506130f682613e92565b604082019050919050565b600061310e60198361365f565b915061311982613ee1565b602082019050919050565b6000613131600083613654565b915061313c82613f0a565b600082019050919050565b600061315460318361365f565b915061315f82613f0d565b604082019050919050565b6000613177602c8361365f565b915061318282613f5c565b604082019050919050565b600061319a60198361365f565b91506131a582613fab565b602082019050919050565b6131b9816137a0565b82525050565b60006131cb8285612df1565b91506131d78284612df1565b91508190509392505050565b60006131ee82613124565b9150819050919050565b600060208201905061320d6000830184612d61565b92915050565b60006080820190506132286000830187612d61565b6132356020830186612d61565b61324260408301856131b0565b81810360608301526132548184612d7f565b905095945050505050565b60006020820190506132746000830184612d70565b92915050565b600060208201905081810360008301526132948184612db8565b905092915050565b600060208201905081810360008301526132b581612e22565b9050919050565b600060208201905081810360008301526132d581612e45565b9050919050565b600060208201905081810360008301526132f581612e68565b9050919050565b6000602082019050818103600083015261331581612e8b565b9050919050565b6000602082019050818103600083015261333581612eae565b9050919050565b6000602082019050818103600083015261335581612ed1565b9050919050565b6000602082019050818103600083015261337581612ef4565b9050919050565b6000602082019050818103600083015261339581612f17565b9050919050565b600060208201905081810360008301526133b581612f3a565b9050919050565b600060208201905081810360008301526133d581612f5d565b9050919050565b600060208201905081810360008301526133f581612f80565b9050919050565b6000602082019050818103600083015261341581612fa3565b9050919050565b6000602082019050818103600083015261343581612fc6565b9050919050565b6000602082019050818103600083015261345581612fe9565b9050919050565b600060208201905081810360008301526134758161300c565b9050919050565b600060208201905081810360008301526134958161302f565b9050919050565b600060208201905081810360008301526134b581613052565b9050919050565b600060208201905081810360008301526134d581613075565b9050919050565b600060208201905081810360008301526134f581613098565b9050919050565b60006020820190508181036000830152613515816130bb565b9050919050565b60006020820190508181036000830152613535816130de565b9050919050565b6000602082019050818103600083015261355581613101565b9050919050565b6000602082019050818103600083015261357581613147565b9050919050565b600060208201905081810360008301526135958161316a565b9050919050565b600060208201905081810360008301526135b58161318d565b9050919050565b60006020820190506135d160008301846131b0565b92915050565b60006135e16135f2565b90506135ed828261381e565b919050565b6000604051905090565b600067ffffffffffffffff82111561361757613616613956565b5b61362082613985565b9050602081019050919050565b600081519050919050565b600081519050919050565b600082825260208201905092915050565b600081905092915050565b600082825260208201905092915050565b600081905092915050565b6000613686826137a0565b9150613691836137a0565b9250827fffffffffffffffffffffffffffffffffffffffffffffffffffffffffffffffff038211156136c6576136c56138c9565b5b828201905092915050565b60006136dc826137a0565b91506136e7836137a0565b9250826136f7576136f66138f8565b5b828204905092915050565b600061370d826137a0565b9150613718836137a0565b92508282101561372b5761372a6138c9565b5b828203905092915050565b600061374182613780565b9050919050565b60008115159050919050565b60007fffffffff0000000000000000000000000000000000000000000000000000000082169050919050565b600073ffffffffffffffffffffffffffffffffffffffff82169050919050565b6000819050919050565b82818337600083830152505050565b60005b838110156137d75780820151818401526020810190506137bc565b838111156137e6576000848401525b50505050565b6000600282049050600182168061380457607f821691505b6020821081141561381857613817613927565b5b50919050565b61382782613985565b810181811067ffffffffffffffff8211171561384657613845613956565b5b80604052505050565b600061385a826137a0565b91507fffffffffffffffffffffffffffffffffffffffffffffffffffffffffffffffff82141561388d5761388c6138c9565b5b600182019050919050565b60006138a3826137a0565b91506138ae836137a0565b9250826138be576138bd6138f8565b5b828206905092915050565b7f4e487b7100000000000000000000000000000000000000000000000000000000600052601160045260246000fd5b7f4e487b7100000000000000000000000000000000000000000000000000000000600052601260045260246000fd5b7f4e487b7100000000000000000000000000000000000000000000000000000000600052602260045260246000fd5b7f4e487b7100000000000000000000000000000000000000000000000000000000600052604160045260246000fd5b6000601f19601f8301169050919050565b7f455243373231456e756d657261626c653a206f776e657220696e646578206f7560008201527f74206f6620626f756e6473000000000000000000000000000000000000000000602082015250565b7f4552433732313a207472616e7366657220746f206e6f6e20455243373231526560008201527f63656976657220696d706c656d656e7465720000000000000000000000000000602082015250565b7f4f776e61626c653a206e6577206f776e657220697320746865207a65726f206160008201527f6464726573730000000000000000000000000000000000000000000000000000602082015250565b7f457863656564206d6178696d756d2043727970746f204465767320737570706c60008201527f7900000000000000000000000000000000000000000000000000000000000000602082015250565b7f4552433732313a207472616e736665722066726f6d20696e636f72726563742060008201527f6f776e6572000000000000000000000000000000000000000000000000000000602082015250565b7f4552433732313a20746f6b656e20616c7265616479206d696e74656400000000600082015250565b7f50726573616c65206973206e6f742072756e6e696e6700000000000000000000600082015250565b7f4661696c656420746f2073656e64204574686572000000000000000000000000600082015250565b7f4552433732313a207472616e7366657220746f20746865207a65726f2061646460008201527f7265737300000000000000000000000000000000000000000000000000000000602082015250565b7f4552433732313a20617070726f766520746f2063616c6c657200000000000000600082015250565b7f4552433732313a206f70657261746f7220717565727920666f72206e6f6e657860008201527f697374656e7420746f6b656e0000000000000000000000000000000000000000602082015250565b7f4552433732313a20617070726f76652063616c6c6572206973206e6f74206f7760008201527f6e6572206e6f7220617070726f76656420666f7220616c6c0000000000000000602082015250565b7f4552433732313a2062616c616e636520717565727920666f7220746865207a6560008201527f726f206164647265737300000000000000000000000000000000000000000000602082015250565b7f4552433732313a206f776e657220717565727920666f72206e6f6e657869737460008201527f656e7420746f6b656e0000000000000000000000000000000000000000000000602082015250565b7f4552433732313a206d696e7420746f20746865207a65726f2061646472657373600082015250565b7f596f7520617265206e6f742077686974656c6973746564000000000000000000600082015250565b7f4552433732313a20617070726f76656420717565727920666f72206e6f6e657860008201527f697374656e7420746f6b656e0000000000000000000000000000000000000000602082015250565b7f4f776e61626c653a2063616c6c6572206973206e6f7420746865206f776e6572600082015250565b7f4552433732314d657461646174613a2055524920717565727920666f72206e6f60008201527f6e6578697374656e7420746f6b656e0000000000000000000000000000000000602082015250565b7f436f6e74726163742063757272656e746c792070617573656400000000000000600082015250565b7f4552433732313a20617070726f76616c20746f2063757272656e74206f776e6560008201527f7200000000000000000000000000000000000000000000000000000000000000602082015250565b7f45746865722073656e74206973206e6f7420636f727265637400000000000000600082015250565b50565b7f4552433732313a207472616e736665722063616c6c6572206973206e6f74206f60008201527f776e6572206e6f7220617070726f766564000000000000000000000000000000602082015250565b7f455243373231456e756d657261626c653a20676c6f62616c20696e646578206f60008201527f7574206f6620626f756e64730000000000000000000000000000000000000000602082015250565b7f50726573616c6520686173206e6f7420656e6465642079657400000000000000600082015250565b613fdd81613736565b8114613fe857600080fd5b50565b613ff481613748565b8114613fff57600080fd5b50565b61400b81613754565b811461401657600080fd5b50565b614022816137a0565b811461402d57600080fd5b5056fea264697066735822122044bea5d0f40cc45b9a20c4815df3a5932d5b33cadedfad3515c60857cb95f1c564736f6c63430008040033",
  "linkReferences": {},
  "deployedLinkReferences": {}
}